:020000040800F2
:1000000078080020B50100082D3B0008253B0008BA
:10001000293B000825130008113C000800000000DF
:10002000000000000000000000000000353B000858
:100030003513000800000000313B0008393B000880
:10004000CF010008CF010008CF010008CF01000850
:10005000CF010008CF010008CF010008CF01000840
:10006000CF010008CF010008CF01000829130008C4
:10007000CF010008CF010008CF010008CF01000820
:10008000CF010008CF010008CF010008CF01000810
:10009000CF010008CF010008CF010008CF01000800
:1000A000CF010008CF010008CF010008CF010008F0
:1000B000CF010008CF010008CF010008CF010008E0
:1000C000CF010008CF010008CF010008CF010008D0
:1000D000CF010008CF010008053C0008CF0100084F
:1000E00039130008CF010008CF01000800F002F822
:1000F00000F050F80AA090E8000C82448344AAF172
:100100000107DA4501D100F045F8AFF2090EBAE86F
:100110000F0013F0010F18BFFB1A43F0010318473B
:10012000744F0000944F0000103A24BF78C878C183
:10013000FAD8520724BF30C830C144BF04680C60ED
:10014000704700000023002400250026103A28BF35
:1001500078C1FBD8520728BF30C148BF0B60704739
:10016000662904F02B87642900F064800020704722
:100170001FB500F0D5FC04000020002104F0C6FBF0
:10018000401C60600020002104F0AAFBE0601FBD5D
:1001900010B510BD00F086FF1146FFF7E9FF03F030
:1001A00039FD00F0ADFF03B4FFF7F2FF03BC00F030
:1001B000F1FF00000948804709480047FEE7FEE7D5
:1001C000FEE7FEE7FEE7FEE7FEE7FEE7FEE7FEE707
:1001D00004480549054A064B704700003D3B0008AE
:1001E000ED00000878020020780800207804002044
:1001F000780400200FB41CB50C0007AA009007D0AB
:100200004142A14202D32044401E01E04FF0FF30A2
:10021000074B7B4469460190069800F022FC0021C0
:10022000002C01D0009A11701CBC5DF814FB00007A
:10023000730800002DE9F041064600241068752976
:10024000314616A510D0AFF30080002802DA4042F4
:1002500013A507E031688A0701D512A502E0490716
:1002600004D511A5012401E0AFF3008000210A228A
:1002700006F1240709E0B0FBF2FCB0FBF2F302FB4D
:100280001C00303078541846491C0028F3D123460E
:100290002A463046BDE8F04100F076B90000000083
:1002A0002D0000002B000000200000002DE9F04789
:1002B0004FF0000A89460446C0F820A02046E168B5
:1002C0008847002876D0252806D0D4E90121904718
:1002D000206A401C2062F1E7E1682046002588473B
:1002E000C4F81CA006460027C4F818A02A2E09D07E
:1002F000304604F0EDFA38B304EB8708303EC8F816
:10030000186019E059F8041B204604EB870291613C
:10031000E1688847012F064618D1E069002820DAF5
:1003200025F020051DE0D8F8180000EB800006EB52
:1003300040003038C8F818002046E1688847064673
:1003400004F0C6FA0028EED1012F0AD02E2E08D1D3
:100350002046E16888477F1C0646022F45F02005AD
:10036000C4DBA069002803DA404245F00105A06122
:10037000E80701D025F01005B6B1A6F14100192813
:1003800002D8203645F400654A46314620462560AD
:100390004D46FFF7E5FE58B1012806D0ED1D25F0CA
:1003A000070000F1080989E704E005F1040985E781
:1003B00030468AE7206ABDE8F08700000FB400B538
:1003C0008DB010A9099000910B904FF0FF300A906A
:1003D00000200C90064878440690064878446A4607
:1003E00007900F9909A800F06BFB0DB05DF814FBA6
:1003F000070700001F0700002DE9FF5F1D464FF0B3
:10040000FF3B91464FF000085F46D5E90146A969D8
:1004100001987F1C8847296A824688470028F6D1C0
:10042000BAF1FF3F0CD0002E24F4C06419DD600641
:1004300014D5BAF12B0F09D0BAF12D0F0ED103E06C
:10044000584604B0BDE8F09F44F48064A96901985F
:100450007F1C8847761E8246002E02DDBAF1300FDF
:1004600003D0B9F1000F26D032E0A969761E0198B9
:100470007F1C44F400748847002E824605DDBAF1E3
:10048000780F06D0BAF1580F03D0B9F1000F10D091
:100490001EE0B9F1000F02D0B9F1100F18D1A9690F
:1004A000761E01987F1C24F4007488478246102031
:1004B00002E0082000E00A20814609E0A96908FB63
:1004C0000908761E01987F1C44F400748847824610
:1004D000002E05DD4946504600F0DEFA0028EDDA30
:1004E000E96901988847A00502D46FF00100A8E7E8
:1004F000E00725D1600613D5600502D5C8F10000DC
:1005000000E0404629680A1D2A600968220501D5D5
:10051000087015E0220701D5088011E008600FE09F
:100520002868011D29600068210502D580F8008037
:1005300006E0210702D5A0F8008001E0C0F80080A5
:1005400038467EE710B5431C02E010F8011B71B17C
:100550008107FAD14FF0013202C88C1A8C4314EA99
:10056000C211F9D0C01A0A0603D0C01E10BDC01AAD
:1005700010BD0A0401D0801E10BD0902FCD0401E2F
:1005800010BD7047704770472DE9F0470D469946FA
:100590009246044600F124080168880604D5E06903
:1005A00021F01001216000E00120A84201DD471B7D
:1005B00000E00027A1697A1902EB0900081AA0617E
:1005C0002078C00602D42046AFF30080002608E061
:1005D000D4E901211AF806009047206A401C761CD5
:1005E00020624E45F4DB2078C0060AD52046AFF3E2
:1005F000008006E0D4E9012130209047206A401CA9
:100600002062381EA7F10107F4DC07E0D4E90121DC
:1006100018F805009047206A401C2062281EA5F1AA
:100620000105F3DC2046AFF300802078000602D5F8
:100630000220BDE8F0870120FBE72DE9FF4F0C46C3
:100640001E464FF0FF378BB0D2E90001DDF8608025
:100650000A908A46C1F30A5505B93D46002108466D
:100660004FF00000BAF1000F00F4400005DA00EB93
:1006700080004FF4400101EA50004FEA9059B9F16F
:10068000010F00DDB9460A9850EA4A000ED044F640
:100690001050A5F2FF3545432F14B8F1000F1ED0BE
:1006A0007542291E1EDDC9F100021CE0B8F1010FE0
:1006B0004FF0000001D0302103E0F24305E0215467
:1006C000401CB042FBDB30460022002121540B9934
:1006D000C1F80880C1E900200FB0BDE8F08FBD1B54
:1006E0006D1CDEE74A4600DA694206A800F064FCA9
:1006F00006AB93E8070003AB83E8070050460A996E
:1007000003F009FD8DE80700A0F500501F380090A8
:100710000398002D0ADD42F21F014A4608440023D7
:1007200003A90390684603F073FF09E0A0F50050A9
:100730004A461F38002303A90390684603F07DFF53
:100740008DE807000004000C03D04FF0FF30410893
:1007500000E01046B8F1000F03D0002200921546C9
:100760001EE0751E05D400F0DFF9303262556D1EB3
:10077000F9D5B3460122084302D000227F1C04E0D1
:100780002078302801D100227F1E002A099784D0CA
:100790001DE0112D07DA00F0C7F9303262556D1CEB
:1007A00050EA0102F5D1084302D00098C8B10EE02A
:1007B0000021681E05E0235C625C63542254401EE5
:1007C000491C8142F7DBAB46A81B401E0990002064
:1007D00004F80B000B98099AC0F80880C0E9002BB8
:1007E0007AE711264FF0000857E72DE9F04F8846C9
:1007F0000446D21D22F0070191B0D1E90001CDE9F4
:100800000A0104F051F802460B98C00F01D02D20C8
:1008100007E02068810701D52B2002E0202101EAB2
:10082000C000032A099001D0072A05DB0346414690
:10083000204600F0C7F90BE12078800601D5E06979
:1008400000E00620B8F1650F814606D0B8F1660FCA
:1008500018D0B8F1670F70D131E00020B9F1110F55
:10086000009001DB112301E009F101030AAA01A9AB
:100870000CA8FFF7E2FEDDE90C70002609F1010586
:10088000834647E001204B4600904FF000470AAAFC
:1008900001A90CA8FFF7D1FEDDE90DB00C995D466A
:1008A000002610B909F101000D18B9EB050003D4B9
:1008B000C0F1FF3609F10105A5EB09002BE0B9F104
:1008C000010F01DA4FF001090020B9F1110F00907A
:1008D000484601DD112300E003460AAA01A90CA83D
:1008E000FFF7ABFEDDE90C704D460026834620780D
:1008F00000070AD4AB4500DA5D4601A8012D04DDEE
:10090000411911F8011C302907D04F4502DA17F1BF
:10091000040F04DA012082460FE06D1EEEE7002F7F
:1009200002DCED1B3E4403E0781CA84200DD7D1C88
:10093000B81B00F1010A4FF000472078000703D4EC
:10094000AA4501DB4FF0FF3A0021B7F1004F0DF14E
:1009500043088DF8431024D002202B23002F01DA06
:100960007F422D230A21021EA0F1010000DC5FB1AD
:1009700097FBF1FC97FBF1F201FB1C7C17460CF195
:10098000300C08F801CDEEE7A8F1010003702188D2
:10099000090501D5452100E06521A0F1010800F815
:1009A000011C09980FA9A1EB0807FF1D00B1012048
:1009B000411901EBEA70A1693844081A401EA06190
:1009C0002078C00602D42046AFF30080099828B1F1
:1009D000D4E901219047206A401C20622078C0069B
:1009E00022D52046AFF300801EE0002E04DBB34585
:1009F00002DD01A8805D00E03020D4E901219047AC
:100A0000206A401C2062761CAAF101005FEA000AFD
:100A10000AD100F085F8C0680168405CD4E9012182
:100A20009047206A401C2062281EA5F10105DCDCED
:100A300007E0D4E9012118F8010B9047206A401C17
:100A40002062381EA7F10107F3DC2046AFF30080D7
:100A5000032011B041E6000001694A1C02610878D8
:100A6000704700B58FB0CDE90131002105910549EE
:100A70007944CDE9031011466846FFF717FC0FB023
:100A800000BD0000E5FFFFFFD1E900239A4202D23A
:100A9000531C0B60107070473A2800D2303820F099
:100AA0002002412A01D3A2F13700884201D34FF03E
:100AB000FF30704702681144137801601846704790
:100AC000D16005497944516104497944116200219A
:100AD0001161114600F0B6B8EDFFFFFFE500000020
:100AE000426842B1016811F8013B23B1521EC0E9CE
:100AF0000012184670470121C160881E7047426885
:100B00005AB1C368016843B983688B4205D0491E56
:100B1000521CC0E90012002070474FF0FF307047B0
:100B2000004870473000002030B5B0F10A0271F182
:100B300000034FEA900E4EEA817EB0EB0E0061EBAF
:100B400091014FEA101E4EEA017E10EB0E0041EBC0
:100B500011114FEA102E4EEA016E10EB0E0041EB20
:100B600011214FEA104E4EEA014E10EB0E0041EB00
:100B70001141401841F100014FEAD00040EA4170B4
:100B80004FEAD1014FEA810444EA907410EB8005EA
:100B900044EB01046D1944EB0404521BA3414FF0D4
:100BA000000348BF0A3200D530BD401C41F10001AE
:100BB00030BD10B5044600F09BFA0068005D00F0FF
:100BC000010010BD2DE9F0411F46044603260168CF
:100BD000072A01F4006004DB08B116A505E016A59C
:100BE00003E008B115A500E015A521F01000206074
:100BF000A069C01EA0610FB1401EA0612046AFF3E6
:100C000000804FB1D4E9012138469047206A401C4A
:100C10002062C01C206206E0206AFAE7D4E90121C4
:100C200015F8010B9047761EF8D22046AFF30080EE
:100C3000BDE8F0814E414E006E616E00494E4600A7
:100C4000696E66002DE9F34F4FF0000A0C465646D8
:100C50008DB001200C9001F10C000B9062690B9893
:100C600001219047051E2DD0252D2CD0216A8847C3
:100C7000C0B162690B9801219047216A884700281A
:100C8000F7D16269411E0B98904700E0761CA1697C
:100C90000D988847216A88470028F7D1E1690D98A7
:100CA0008847DBE7A1690D988847A842074601D12C
:100CB000761CD3E7E1690D9888477F1C02D1BAF111
:100CC000000F6FD06BE162690B9800273D463946F3
:100CD00090472A2804D162690B9801219047012589
:100CE000DFF8D08262690B9801219047A0F13001B2
:100CF0000A290AD24745E5DC07EB870100EB4107EB
:100D0000303FDFD445F01005ECE7E90601D46FF081
:100D100000476C280AD04C2814D0682815D06A28BF
:100D20000DD074281CD07A281AD01DE062690B9867
:100D3000012190476C2802D045F0040514E045F0ED
:100D400002050DE045F020050AE062690B980121DB
:100D50009047682802D045F0080505E045F4006595
:100D600062690B9801219047C4E9015765283DD07D
:100D700019DC58287AD00CDC452837D004DC25282B
:100D800026D041289ED131E046282FD0472899D13E
:100D90002CE05B2877D0612828D063287CD0642899
:100DA00023D15AE0F6E06F2848D008DC66281DD031
:100DB00067281BD0692821D06E2816D127E070281B
:100DC00045D0732868D0752847D078280DD14DE0DC
:100DD000A1690D988847252805463FF469AFE16968
:100DE0000D9888476D1C3FF46AAFD8E00D992346F3
:100DF0006A466FF00100AFF30080C5E045F04000A7
:100E000023464FF000026060A80736D43EE0E807B2
:100E10007FF447AF2068011D21600068290501D5D6
:100E200006701BE7290701D5068017E7A90703D538
:100E3000F117C0E9006111E706600FE745F04000D7
:100E400023464FF008026060A80716D41EE040F663
:100E50000E0125EA0100606016E045F040002346DF
:100E60004FF00A026060A80707D40FE045F0400089
:100E70006060A80708D5234610220D996FF0010085
:100E8000AFF3008080E007E0102223460D996FF059
:100E90000100FFF7B1FA77E04FF0000963284F46F1
:100EA000C8464B46CB4602D05B2806D038E0E80661
:100EB00001D40120A060012732E06269D4F80CB0AF
:100EC0000B98012190475E2807D14FF00109494650
:100ED0006269D4F80CB00B989047216939B90021A8
:100EE0000A4603AB43F82120491C0829FADBD8B392
:100EF000216949B308F1010862690B980121904703
:100F00005D28F4D1B9F1000F09D0002003A951F8F0
:100F10002020D24341F82020401C0828F7DB03ABF7
:100F20002069002820794FEA40701ED05B46224697
:100F3000CDF80080CDE901970D9900286FF00100F0
:100F400020DAAFF300801FE0C11703AA00EBD161E4
:100F50004B1121F01F0102EB8302411A136801209B
:100F6000884003431360C7E719E00D992246002823
:100F70006FF00100009702DAAFF3008004E0AFF3F6
:100F8000008001E0AFF3008000280ADA401C06D19F
:100F90000C9820B14FF0FF300FB0BDE8F08F5046F5
:100FA000FAE7E90701D10AF1010A064400200C9092
:100FB00054E60000CCCCCC0C2DE9F0478146164617
:100FC0008AB0354878440DC88DE80D003248784421
:100FD000801C03AC0DC884E80D0041F69B3008442A
:100FE000372190FBF1F290FBF1F5A5F1800501FBB3
:100FF00012041B3C02D56442012000E00020DFF80F
:1010000098A080460027FA44AAF1BE0A0EE0E00745
:101010000AD03246684607EB470101230AEB8101FB
:1010200003F00BFB8DE8070064107F1C002CEED151
:10103000194F7F44AE3F19E0E80715D007EB0410C5
:101040000DF1180A90E80E008AE80E00C068F04220
:1010500001D1981908903246012306A903A803F08C
:10106000ECFA03AB83E807006D10641C002DE3D19C
:101070004FF0010332466946B8F1000F03A802D0D1
:1010800003F0C6FA01E003F0D8FAC9E90001C9F893
:1010900008200AB0BDE8F08774400000004870479F
:1010A000100000207546FFF7F9FFAE4605006946BF
:1010B000534620F00700854618B020B5FFF788F8A2
:1010C000BDE820404FF000064FF000074FF0000849
:1010D0004FF0000BAC46ACE8C009ACE8C009ACE886
:1010E000C009ACE8C00921F007018D467047000037
:1010F00010B5FFF715FD001D10BD00BF1138000031
:1011000010B50446AFF300802046BDE81040FFF75D
:101110004AB800004FF0013C50F8042B51F8043B52
:101120009A4221D1A2EB0C03934313EACC1317D1BB
:1011300050F8042B51F8043B9A4215D1A2EB0C0352
:10114000934313EACC130BD150F8042B51F8043B12
:101150009A4209D1A2EB0C03934313EACC13DBD0E0
:101160004FF00000704700BFD01A01BAB1FA81F108
:1011700001F0180122FA01F0CB40DBB2C0B2C01A74
:10118000C1F120012CFA01F3D11A914311EAC311E4
:10119000E6D1704701491820ABBEFEE726000200E9
:1011A00070470000B0B5044600688168C90709D0DF
:1011B000816821F00101816000F0F0FE21688968FA
:1011C000C90701D10020B0BD054602E08068C00714
:1011D000F8D000F0E3FE411B20680329F6D38168B4
:1011E000C907F3D0A06A40F01000A062E06A40F0A6
:1011F0000100E0620120B0BD0146406A826A12F03F
:10120000500F03D0006A026B084610470168826ADB
:1012100042F400728262896801F46021B1F5602FA6
:1012200001D1017B11B100F0E5B900BF816A21F461
:1012300080718162816AC90448BF00F0DBB9816AAC
:1012400041F00101816200F0D5B90000406A816A75
:1012500041F040018162C16A41F00401C16200F0C5
:1012600021BA0000406A00F01BBA0000B0B582B09D
:1012700004460020019021688A68D2074FD188680F
:1012800040F00100886040F20800C2F200000068EF
:101290004DF68361C4F21B31A0FB0101880C019063
:1012A0000198A0B1019801380190019878B1019896
:1012B00001380190019850B10198013801900198CE
:1012C00028B101980138019001980028EAD100F076
:1012D00065FE21688968C9071CD1054603E000BF87
:1012E0008068C0071AD100F059FE411B206803290D
:1012F000F6D38168C907F3D1A06A40F01000A0625C
:10130000E06A40F00100E062002084F8240001203F
:1013100002B0B0BD002002B0B0BD00BF002002B0DE
:10132000B0BD0000FEE7000040F2C800C2F20000BD
:1013300000F0BEBB704700004FF4005000F012BD3B
:10134000EFF3108072B600BFFEE7000070B582B008
:1013500004460020019094F82400012804D10225BD
:10136000284602B070BD00BF012084F8240020464A
:10137000FFF718FF054600286CD1A06A41F2021160
:1013800088430230A06240F20800C2F20000066802
:10139000022000F0BDFEB6FBF0F040000190019885
:1013A000A8B100BF019801380190019878B1019867
:1013B00001380190019850B10198013801900198CD
:1013C00028B101980138019001980028EAD12046FF
:1013D000FFF74CFF2068816841F00801816000F050
:1013E000DDFD21688A6812070ED4886840F0040089
:1013F000886000F0D3FD21688968490714D4012072
:101400006FF0030122E000BF064602E08868000793
:10141000EBD500F0C3FD801B21680B28F6D388684C
:101420000007F3D50EE000BF064602E080684007E3
:10143000E5D500F0B3FD811B20680B29F6D3816848
:101440004907F3D5012510206FF01201A26A11405F
:101450000843A062002084F82400284602B070BD32
:1014600010B581B00022009290F82420012A03D107
:101470000221084601B010BD4B680122062B80F8FE
:10148000242015D8026803EB8303A3F1050E1F2364
:10149000D2F834C003FA0EF40B682CEA040C03FAF9
:1014A0000EF444EA0C045463092B17D937E000BF4B
:1014B00002680C2B20D803EB8303A3F123041F2322
:1014C000D2F830C003FA04FE0B682CEA0E0C03FAC3
:1014D00004F444EA0C041463092B20D8D2F810C099
:1014E00003EB4303072489689C402CEA04049940D9
:1014F00021431161002136E003EB8303A3F1410492
:101500001F23D2F82CC003FA04FE0B682CEA0E0C41
:1015100003FA04F444EA0C04D462092BDED903EB89
:101520004304D2F80CC0A4F11E0E0724896804FA03
:101530000EF42CEA040401FA0EF1214323F0010415
:10154000102CD1600ED142F20841C4F20101A1F188
:101550000804A2420ED0816A41F02001816201217B
:1015600001E000BF0021002280F82420084601B0DD
:1015700010BD00BF0A68120230D40A68102B42F472
:1015800000020A602CD140F20801C2F20001096891
:101590004DF68362C4F21B32A1FB0212910C01EBE7
:1015A0008101490000910099E1B100990139009150
:1015B0000099C9B10099013900910099B1B1009920
:1015C00001390091009999B1009901390091009970
:1015D00000294FF00001E8D1C5E700BF0021C2E7B4
:1015E0000021C0E70021BEE70021BCE70021BAE7E7
:1015F0000021B8E770B590B0006842F20041C4F233
:101600000101884202D010B070BD00BF40F27001ED
:10161000C2F20001D1E9010603F049FB4FF6006573
:10162000C4F2AF0500222B4603F0B8F90023C4F240
:101630005903002203F04EFB03F00AFB0446304638
:1016400003F035FB46F26663C4F20A034FF06632DC
:1016500003F040FB00222B4603F0A0F903F06CF9E5
:1016600003F036FC0DF10E05CDE9000109A2284674
:1016700032210294FEF7BEFD2846FEF763FF82B2D8
:1016800040F22C20C2F20000294602F027FA10B0E6
:1016900070BD00BF252E32662C25643B0A00000079
:1016A0007047000070470000B0B5002800F0A88027
:1016B0000446806A20B121688868C0070BD114E015
:1016C0000020E06284F82400204600F09BF82168A6
:1016D0008868C00709D0886820F00100886000F0A1
:1016E0005DFC21688A68D20726D1A06AC0063AD478
:1016F000A06A41F2021290430230A062E069D4E98C
:10170000013240EA030C531EB3FA83F35D0913461A
:10171000B2F5807F18BF2B02207D257B01284CEA83
:10172000450030D135B3A56A45F02005A562E56ACC
:1017300045F00105E56226E0054602E08868C0073D
:10174000D3D000F02BFC401B21680328F6D3886817
:10175000C007F3D0A06A40F01000A062E06A40F039
:101760000100E062A06AA06A40F01000A0620120BF
:10177000B0BD00BFD4F818C04EF60005CFF6FF7517
:1017800005EB4C352B434D68B2F5807F25F4694558
:1017900043EA05034B608B684FF2FD75CFF6E175A8
:1017A00003EA050343EA00038B6001D0012A07D155
:1017B00022690023CFF6F07303EB025201E000BF71
:1017C0000022CB6A23F470031A43CA62896840F688
:1017D000FE62CFF61F721140814207D10020E06205
:1017E000A16A012262F30101A162B0BDA06A40F0CA
:1017F000100020F00200A062E06A40F00100E06208
:101800000120B0BD70B586B0044640F60000C4F2B9
:101810000100216800F5E0520026914205960496E9
:1018200002D006B070BD00BF41F21801C4F202013F
:101830000A6842F400720A600A6802F400720192B7
:10184000019A0A6842F004020A60096801F0040182
:10185000019101990321CDE9021102A900F08EFA4C
:1018600040F2C8050820C2F20005C4F202004FF49D
:101870000072C5E9000605F1100080214FF40063F5
:101880004FF0200C80E80C102846C5E90261EE619B
:1018900000F0DCF9002818BFFFF752FD25626C62EA
:1018A00006B070BD70B515460446006842F60002E9
:1018B000C4F2010290420E4605D042F20041C4F249
:1018C0000101884209D142F20440C4F201000068DB
:1018D00010F4702F1CBF012070BD94F82400012863
:1018E00004BF022070BD012084F824002046FFF7C9
:1018F000BDFC18B1002184F8241070BD42F20440F0
:101900002168A26AC4F2010040F601739A4300F50F
:101910007F7302F580729942A26243D0A06A20F4DC
:101920008010A0624868400504D5A06A012262F3D5
:101930000D30A062A26A0020D2044FF0000244BF22
:10194000E26A22F00602E26284F82400206A41F290
:10195000F912C0F6000241F2652341F24D2C00F16C
:10196000280EC0F60003C0F6000C8EE80C106FF0D5
:1019700002020A608A682B4642F480728A604C3107
:10198000324600F09FF92068816801F46022816886
:10199000B2F5602F0CBF41F4A00141F480118160C9
:1019A000002070BD026812F4702FB7D0A26A42F412
:1019B0008012A26200684005BCD5B6E7014690F8E7
:1019C0002100022816D10868D1E90FC3026822F06D
:1019D0000E020260026822F001020260012000FA99
:1019E00003F2CCF8042081F821000020002281F8C5
:1019F00020207047042088630120002281F82020E5
:101A00007047000080B590F82110022924D10268A7
:101A1000116821F00E0111602F211368C4F2020138
:101A20008A4240F20401C4F2020123F00103136070
:101A300016DD3023C4F202039A421DD04423C4F2BF
:101A400002039A421CD05823C4F202039A421DD1C9
:101A50004FF4803322E000BF04218163012080BD68
:101A60000823C4F202039A420ED01C23C4F20203DC
:101A70009A420BD1102311E04FF480730EE000BFA7
:101A80004FF480530AE000BF012307E001F1680C26
:101A90004FF08073624508BF4FF480130B60416BB9
:101AA0004FF48072028401B18847002080BD00009D
:101AB00010B5D0E90FCE0168DCF800300A6823FACF
:101AC0000EF35C072AD512F0040427D00A689206A8
:101AD00003D40A6822F004020A602F22C4F2020230
:101AE000914240F20402C4F2020259DD3023C4F2F2
:101AF0000203994270D04423C4F20203994271D088
:101B00005823C4F20203994278D14FF48023136022
:101B1000C16A002940F097806EE000BF9C0727D57E
:101B200012F0020424D00A68920606D40A6822F051
:101B30000A020A60012280F821202F22C4F2020248
:101B4000914240F20402C4F2020239DD3023C4F2B1
:101B5000020399425ED04423C4F2020399425DD04D
:101B60005823C4F2020399425ED14FF4003363E07C
:101B70001B0741D512F0080208BF10BD0A6822F009
:101B80000E020A60012101FA0EF2CCF804208163F2
:101B9000016B4FF480720029028454D12CE000BF05
:101BA0000823C4F20203994222D01C23C4F2020388
:101BB000994223D140231360C16A002943D11BE01D
:101BC0000823C4F2020399422CD01C23C4F202035E
:101BD000994229D120232FE04FF480631360C16A1A
:101BE00089BB09E04FF480431360C16A59BB03E02D
:101BF00004231360C16A31BB10BD00BF02F1680449
:101C00004FF08063A14208BF4FF480031360C16AA4
:101C1000C9B9F1E74FF400730EE000BF4FF4005371
:101C20000AE000BF022307E002F168044FF00073EE
:101C3000A14208BF4FF400131360816A00220029FB
:101C400080F82020D8D0BDE810400847002804BF05
:101C5000012070472DE9F04101684FF6F872CBF68C
:101C6000FD724CF6CD430A44CCF6CC43A2FB0323D1
:101C70006FF0030707EA93030027C4F2020700F19D
:101C8000040E00F11008C0E90F739EE8045098E8B4
:101C900070010B6843F6F077BB431A4342EA0C022B
:101CA00042EA0E0222432A43324342EA08020A6011
:101CB00000214FF4807281630284BDE8F041084640
:101CC00070470000F0B590F820C0BCF1010F32D091
:101CD00090F821C04FF0010EBCF1010F80F820E018
:101CE00026D14FF0020C80F821C04FF0000CC0F854
:101CF00038C0D0E900C4C56AC66BDCF80070102C8F
:101D000027F00107CCF80070006C0EFA00F070604C
:101D10000846CCF8043004BF10460A46CCF8080048
:101D2000CCF80C20DCF8000045B140F00E000DE0CE
:101D3000002180F820100220F0BD00BF20F0040038
:101D4000CCF80000DCF8000040F00A00CCF80000FD
:101D5000DCF8000040F00100CCF800000020F0BDED
:101D60007047000040F21441C4F201010A680242C7
:101D700014BF08607047FFF7F3BF00002DE9F04F74
:101D800082B041F20042C4F201020E680423904284
:101D900008BF0323002E009300F0F68040F20C4EA3
:101DA0004FF6FF7CC4F2010E00220124C1F2100C98
:101DB0004FF0000A4FF0000943E000BF012502F098
:101DC0000C040F27A7402BEA070705FA04F43C434D
:101DD00043F82640D1F804B040F20045C4F20105B2
:101DE0005FEACB332B6854BF23EA080343EA0803B6
:101DF0002B606B685FEA8B3454BF23EA080343EA25
:101E000008036B605FEACB24AB6854BF23EA080386
:101E100043EA08035FEA8B24AB60DEF800304FF042
:101E2000010454BF23EA080343EA0803CEF8003054
:101E30000E680AF1010A36FA0AF302F1040200F010
:101E4000A38004FA0AF816EA080FF1D04B6863453C
:101E500012DC122B56D8DFE803F0350B45495555F7
:101E600055555555555555555555554D510000BF6E
:101E7000D1F80C9046E000BF4FF6FF77C1F2210782
:101E8000BB420FDC0027C1F21107BB421AD000276A
:101E9000C1F21207BB4215D00027C1F22107BB4295
:101EA00010D02FE00027C1F22207BB420AD0002742
:101EB000C1F23107BB4205D00027C1F23207BB4255
:101EC00020D100BF8B684BB1012B14BFC0F8148028
:101ED000C0F810804FF0080914E000BF4FF004096B
:101EE00010E000BFCB6803F108090BE04FF00009D8
:101EF00008E000BFCB6803F1040903E0CB6803F1FD
:101F00000C0900BF13460546BAF1080F24BF203B59
:101F100004352E680F279F40BE4309FA03F333436D
:101F20002B60CB79DB067FF583AF41F21804C4F256
:101F3000020423684FEA9A0643F0010323602368F2
:101F400040F6000403F001030193019B40F20043BB
:101F5000C4F20103A3F57E7353F826B0C4F2010462
:101F6000A0420FD040F60044C4F20104A0423FF466
:101F700025AF41F20004C4F20104009DA04208BF55
:101F800002251CE700251AE702B0BDE8F08F00002B
:101F9000002A08BF090401617047000040F2702068
:101FA000C2F200000068704740F2000040F2702169
:101FB000C2F20000C2F2000100780A681044086012
:101FC0007047000080B542F20000C4F202000168D0
:101FD00041F010010160032000F08AF8002000F0B9
:101FE00005F800F027F8002080BD000070B540F231
:101FF0000006C2F2000640F208013278C2F2000187
:102000004FF47A730968B3FBF2F20446B1FBF2F1C4
:10201000084600F05DFC0F2C4FF0010508D838B9D8
:102020004FF0FF3021460022002500F035F87460A3
:10203000284670BD82B041F21800C4F20200016867
:10204000022241F001010160016801F001010191EA
:102050000199416841F080514160406800F0805032
:10206000009000980420C4F20100016862F31A6134
:10207000016002B070470000002848BF704700F0C0
:102080001F01012202FA01F14EF200124009CEF2C4
:10209000000242F82010704710B54EF60C5CCEF2EC
:1020A000000CDCF80030C3F3022E8EF00704042C81
:1020B00028BF0424BEF103034FF0FF3E0EFA04F4E0
:1020C00038BF0023A14399400EFA03F39A4311430A
:1020D00000F00F02043A624409010C3200F160433F
:1020E000B0F1FF3FC8BF03F56442117010BD00009E
:1020F0004EF60C51CEF200010A684FF6FF031A406B
:1021000060F30A2242F0806040F0FD700860704782
:1021100080B5012818D0022836D0102832D141F2DB
:102120000401C4F202010A6851F8040CC00129D567
:10213000C2F383402DA3185CD2033DD440F60012B5
:10214000C0F23D02504343E041F20400C4F20200F9
:10215000C16940F202320A40B2F5817F04BF4FF4F8
:10216000004080BD01F44071B1F5407F1CD0B1F555
:10217000007F07D1006A49F64041800701EAE0701C
:1021800080BD00BF002080BD00F0B4F941F2040121
:10219000C4F2020109680222C1F3813102EB41015C
:1021A000B0FBF1F080BD00BF50F8040C4FF22441A9
:1021B000800301EAE07080BD0A6810A3C2F34042C8
:1021C0009A5C41F20023C0F27A03B3FBF2F250436F
:1021D0000968490248BF80BD4AF6AB214000CAF6F3
:1021E000AA21A0FB0101480880BD00BF020304052D
:1021F000060708090A0B0C0D0E0F10100102000053
:102200002DE9F04182B00446007841F21C06C00777
:10221000C4F202064AD0306810F0805808D1306805
:1022200040F080503060306800F08050019001989C
:1022300047F20007C4F200073868C00512D43868B6
:1022400040F480703860FFF7A9FE05463868C00585
:1022500008D4FFF7A3FE401B6428F7D9032002B07F
:10226000BDE8F081706810F4407012D0616801F42C
:10227000407188420DD0706840F24042C4F2422260
:10228000012320F4407113600023C00713607160C4
:102290002AD17068616820F440700843B8F1000FDB
:1022A000706003D1306820F0805030602068810772
:1022B00007D556F8181CA26821F44041114346F88E
:1022C000181CC00604D4002002B0BDE8F08100BF95
:1022D00056F8180CE16820F48000084346F8180C02
:1022E000002002B0BDE8F081FFF758FE054641F23C
:1022F000883700BF70688007CBD4FFF74FFE401BC4
:10230000B8424FF00300F5D9EBE700002DE9F043A8
:1023100081B0002800F0858042F20008C4F2020873
:102320000446D8F800000D4600F0070088420CD2A1
:10233000D8F8000020F007002843C8F80000D8F8BB
:10234000000000F00700A8426BD1206841F20409A8
:102350008107C4F2020917D5410705D5D9F8001045
:1023600041F4E061C9F80010010705D5D9F8001063
:1023700041F46051C9F80010D9F80010A26821F0AA
:10238000F0011143C9F80010C00741D1D8F800008E
:1023900000F00700A8420CD9D8F8000020F0070090
:1023A0002843C8F80000D8F8000000F00700A84251
:1023B00037D12068410707D5D9F80010E26821F429
:1023C000E0611143C9F80010000708D5D9F80000F2
:1023D000216920F4605040EAC100C9F80000D9F832
:1023E000002002F00C00082841F20020C0F27A0020
:1023F00050D145F26E03C2F38341C0F60003595C2D
:10240000D2033BD440F60010C0F23D00484341E007
:10241000606802280AD001282AD159F8041C8903CF
:1024200008D4012001B0BDE8F08300BF59F8041CB6
:102430008901F6D5D9F8001021F003010843C9F845
:102440000000FFF7ABFD064641F28837D9F80000DF
:10245000616800F00C00B0EB810F97D0FFF79EFD94
:10246000801BB842F2D9032001B0BDE8F08300BF61
:1024700059F8041C8907D4D5DCE700BFD9F800203F
:1024800045F25403C2F34042C0F600039A5C48434D
:10249000B0FBF2F0D9F8001045F25602C1F3031177
:1024A000C0F60002515C40F2080220FA01F140F24D
:1024B0000400C2F200000068C2F200021160FFF7DF
:1024C00095FD002001B0BDE8F083000040F2080057
:1024D00041F20401C2F20000C4F20201006809687E
:1024E00045F26602C1F30221C0F60002515CC84009
:1024F0007047000040F2080041F20401C2F20000FF
:10250000C4F202010068096845F26602C1F3C22103
:10251000C0F60002515CC840704700002DE9F04150
:1025200082B0002868D00446007841F20006C00757
:10253000C4F2020625D0706800F00C0004281BD0FD
:10254000706800F00C00082802D17068C00313D432
:102550006068002800F06881B0F5A02F00F07C8151
:10256000B0F5803F00F07C81306820F4803030602E
:10257000306820F4802076E13068800301D56068FF
:10258000D0B32078800718D5706810F00C0F07D0F2
:10259000706800F00C0008286ED17068C0036BD41E
:1025A0003068800702D52069012825D1306861692B
:1025B00020F0F80040EAC1003060207800071FD406
:1025C0002078400732D4E56995B1706800F00C00BE
:1025D000082840F08F80012D0ED07068216A00F429
:1025E00080328A4208D1616A00F47010884203D1B7
:1025F000002002B0BDE8F081012002B0BDE8F0810A
:10260000A069002862D00020C4F242200121C0F855
:102610008014FFF7C3FC0546706A800700F18C80C8
:10262000FFF7BCFC401B0228F6D92AE1F06910F044
:10263000805808D1F06940F08050F061F06900F0F6
:1026400080500090009847F20007C4F200073868F5
:10265000C00529D4386840F480703860FFF79EFCCC
:10266000054600BF3868C0051ED4FFF797FC401B25
:102670006428F7D905E100BF2069002840F2000076
:10268000C4F2422000F0828001210160FFF786FC45
:10269000054600BF306880073FF588AFFFF77EFC36
:1026A000401B0228F6D9ECE0E068002800F08080AA
:1026B000052800F09780012800F09880306A20F00B
:1026C00001003062306A20F0040092E00020C4F281
:1026D00042200021C0F88014FFF760FC054600BFCF
:1026E000706A80077FF56CAFFFF758FC401B02282B
:1026F000F6D9C6E00027C4F2422700203866FFF76B
:102700004DFC022D05460BD13068800140F1BE80A2
:10271000FFF744FC401B02284FF00300F4D968E7A0
:10272000306880017FF564AFFFF738FC401B02285A
:102730004FF00300F4D95CE740F20800C2F2000059
:10274000006844F6D351C1F26201A0FB0101480ABE
:10275000019000BF00BF0198411E002801913FF485
:102760002FAF00BF0198411E002801913FF428AF10
:1027700000BF0198411E002801913FF421AF00BF26
:102780000198411E00280191E4D119E70021016060
:10279000FFF704FC054600BF306880077FF50DAFEA
:1027A000FFF7FCFB401B02284FF00300F4D920E7A1
:1027B000306A20F001003062306A20F0040030629C
:1027C000FFF7ECFB054641F2883700BF306A80070F
:1027D00020D5FFF7E3FB401BB8424FF00300F5D9CB
:1027E00007E700BF306A40F004003062306A40F012
:1027F00001003062FFF7D2FB054641F2883700BF87
:10280000306A800706D4FFF7C9FB401BB842F7D9EE
:1028100037E000BFB8F1000F7FF4D5AEF06920F0CB
:102820008050F061CFE600BF306820F48030306027
:10283000306820F480203060FFF7B0FB054600BF11
:10284000306880037FF59DAEFFF7A8FB401B64282E
:102850004FF00300F4D9CCE6306840F480203060BB
:10286000306840F480303060FFF798FB054600BFC9
:10287000306880033FF585AEFFF790FB401B64286E
:10288000F6D9032002B0BDE8F08100BF206AB0F5A0
:10289000803F05D17168A26821F400311143716055
:1028A0007168626A21F4741110430843706001205A
:1028B0003866FFF773FB0446306880013FF598AE39
:1028C000FFF76CFB001B02284FF00300F4D990E6E1
:1028D000411E0020B0EB116F1CBF012070474EF26B
:1028E0001002CEF2000251604EF62351CEF20001EA
:1028F000F0230B700721906011607047B0B590F81D
:102900003C20012A04BF0220B0BD01F108053CCDE6
:10291000D1E900CE23F47C5322F470521A432EF4F2
:10292000F0431A432CF4E0431A4324F4C0431A43FF
:102930002A43C96922F48042036811435964002183
:1029400080F83C100846B0BD10B590F83C20012A34
:102950004FF0020233D080F83D200268D2F804E044
:10296000D2F808C00C682EF07003234340F2FF74C5
:10297000C4F20004A24253600ADCB2F1804F13D0CB
:1029800040F20043C4F200039A420DD011E000BFB0
:1029900042F60043C4F201039A4205D040F6000318
:1029A000C4F200039A4204D149682CF08003194311
:1029B00091600121002280F83D1080F83C201046F3
:1029C00010BD000041B1082910D0042914BF00F146
:1029D000450200F143020BE090F84220012A1CBF9F
:1029E00001207047022280F8422013E000F14402E7
:1029F0001278012A1CBF012070470222082907D043
:102A0000042914BF80F8452080F8432002E000BF6D
:102A100080F84420006801F01F010422036A02FAD2
:102A200001F123EA01020262026A11430162416C70
:102A300040F2FF72C4F2000241F40041904241644E
:102A40000ADCB0F1804F13D040F20041C4F2000123
:102A500088420DD013E000BF42F60041C4F20101EC
:102A6000884205D040F60001C4F20001884206D138
:102A7000816801F00701062904BF00207047016842
:102A800041F001010160002070470000002804BFF0
:102A90000120704710B5044690F83D0028B9002089
:102AA00084F83C00204600F067F8022084F83D00DE
:102AB000206840F2FF730268C4F2000342F6004C43
:102AC0009842C4F2010C15DCB0F1804F1AD040F2EC
:102AD0000041C4F20001884214D0984218DCB0F1E1
:102AE000804F1DD040F20041C4F20001884217D04F
:102AF0001AE000BF604505D040F60001C4F20001B5
:102B00008842EAD1A16822F070020A439842E6DDC9
:102B1000604505D040F60001C4F20001884203D1AF
:102B2000216922F440720A43A36922F08001D4F89B
:102B300004E0E268194360450160C262C0F828E021
:102B400002D16169CCF8301001214161002084F884
:102B5000461084F83E1084F83F1084F8401084F842
:102B6000411084F8421084F8431084F8441084F82B
:102B7000451084F83D1010BD82B0006840F200415D
:102B8000C4F20001884215D042F60041C4F20101AE
:102B900088421CD141F21800C4F20200016841F4DD
:102BA00000610160006800F400600190019802B0CB
:102BB000704700BF41F21800C4F20200416841F0C2
:102BC00002014160406800F002000090009802B0ED
:102BD0007047000080B590F83C20012A4FF00202B7
:102BE00000F0BF8080F83D20D0F800C04FF677722B
:102BF000DCF8083023EA0202CCF808200B683F2BEF
:102C00001CDD5F2B20DD602B50D0B3F5005F6DD055
:102C1000702B40F0A080D1E901E3C968DCF80820FE
:102C200043EA0E0322F47F4243EA01211143CCF828
:102C30000810DCF8081041F077018AE01F2B29DC2E
:102C400063B3102B2AD086E0402B63D0502B40F08A
:102C50008280D1F804E0C968DCF82030DCF820205C
:102C600022F00102CCF82020DCF8182022F0F0023B
:102C700042EA011123F00A0242EA0E02CCF81810CF
:102C8000CCF82020DCF8081041F0570121F0200199
:102C90005FE000BF202B01D0302B5CD1DCF80810A6
:102CA00021F07001194341F0070152E0D1F804E02E
:102CB000C968DCF8203023F01003CCF82030DCF8B1
:102CC0001830DCF8202023F4704322F0A00243EAFD
:102CD000013142EA0E12CCF81810CCF82020DCF8B2
:102CE000081041F0670121F0100132E0D1E901E361
:102CF000C968DCF8082043EA0E0322F47F4243EA65
:102D000001211143CCF80810DCF8081041F480418F
:102D10001FE000BFD1F804E0C968DCF82030DCF81F
:102D2000202022F00102CCF82020DCF8182022F02C
:102D3000F00242EA011123F00A0242EA0E02CCF844
:102D40001810CCF82020DCF8081041F0470121F0E1
:102D50003001CCF808100121002280F83D1080F8E5
:102D60003C20104680BD000080B586B0006840F26F
:102D70000041C4F2000188424FF00001CDE9041186
:102D8000CDE9021132D040F60001C4F200018842C0
:102D900054D042F60041C4F20101884269D141F2A7
:102DA0001800C4F20200016841F0040101600068EB
:102DB00002A900F0040001900198802002900220F6
:102DC0000390059040F60000C4F20100FEF7D6FF24
:102DD0000420C4F20100016821F0800141F0E061AB
:102DE00041F04001016006B080BD00BF41F2180013
:102DF000C4F20200016841F010010160006802A9FC
:102E000000F01000019001988020029002200390B1
:102E1000059040F60000C4F2010000F50060FEF7E6
:102E2000ADFF0420C4F2010040220168C0F200722C
:102E300002F53C621143016006B080BD41F218000A
:102E4000C4F20200016841F008010160006802A9B3
:102E500000F00800019001984020029002200390A9
:102E6000059040F60000C4F2010000F58060FEF716
:102E700085FF06B080BD00002DE9F04190F83C30A0
:102E8000012B04BF0220BDE8F0814FEAB202032A01
:102E90002FD8DFE802F00335659B00BF026842F6D9
:102EA0000045136AC4F2010523F001031362146A9A
:102EB0005368D2F818C0AA428D68D1F800E024F017
:102EC000020444EA05040BD1CD68D1E9056723F477
:102ED000407324F00C0425F0040533432C433B439A
:102EE0002CF0730747EA0E075360976149685163F6
:102EF0001462002180F83C100846BDE8F08100BF54
:102F0000026842F60045136AC4F2010523F010037B
:102F10001362146A5368D2F818C0AA428D68D1F8B7
:102F200000E024F0200444EA05140FD1CD68D1E973
:102F300005876FF0400623F4406324F0C00406EADE
:102F4000051543EA88032C4343EA87032CF4E6473C
:102F500047EA0E2753609761496891632EE000BFEE
:102F6000026842F60045136AC4F2010523F4807337
:102F70001362146A5368D2F81CC0AA428D68D1F853
:102F800000E024F4007444EA05240FD1CD68D1E9AF
:102F900005872D0240F2FF4623F4405324F4406499
:102FA000B54343EA08132C4343EA07132CF0730795
:102FB00047EA0E075360D7614968D1631462002164
:102FC00080F83C100846BDE8F08100BF026842F678
:102FD0000046136AC4F2010623F480531362136A95
:102FE0005468D2F81CE00D68D1F808C0B24204D190
:102FF0004E6924F4804444EA86142EF4E64747EAF6
:1030000005275460D76123F40053496843EA0C3321
:1030100011641362002180F83C100846BDE8F0817D
:10302000002804BF0120704710B5044690F83D0009
:1030300028B9002084F83C00204600F067F8022000
:1030400084F83D00206840F2FF730268C4F2000378
:1030500042F6004C9842C4F2010C15DCB0F1804FEE
:103060001AD040F20041C4F20001884214D09842C4
:1030700018DCB0F1804F1DD040F20041C4F20001D5
:10308000884217D01AE000BF604505D040F6000125
:10309000C4F200018842EAD1A16822F070020A431A
:1030A0009842E6DD604505D040F60001C4F200011B
:1030B000884203D1216922F440720A43A36922F0B5
:1030C0008001D4F804E0E268194360450160C262FF
:1030D000C0F828E002D16169CCF8301001214161CB
:1030E000002084F8461084F83E1084F83F1084F8DD
:1030F000401084F8411084F8421084F8431084F89A
:10310000441084F8451084F83D1010BD81B000686B
:10311000B0F1804F02D001B0704700BF41F21C00F7
:10312000C4F20200016841F001010160006800F092
:1031300001000090009801B07047000041B10829DB
:1031400010D0042914BF00F1410200F13F020BE04E
:1031500090F83E20012A1CBF01207047022280F80F
:103160003E2013E000F140021278012A1CBF01202A
:1031700070470222082907D0042914BF80F8412093
:1031800080F83F2002E000BF80F84020006801F096
:103190001F010122036A8A4023EA02010162036AD5
:1031A00042F64441C4F201011A43A1F1440398429A
:1031B00002620FD040F2FF71C4F20001884213DCBA
:1031C000B0F1804F1CD040F20041C4F200018842AF
:1031D00016D01CE00A6842F400420A6040F2FF7117
:1031E000C4F200018842EBDD42F60041C4F2010165
:1031F000884205D040F60001C4F20001884206D1A1
:10320000816801F00701062904BF002070470168AA
:1032100041F0010101600020704700002DE9F043FA
:1032200090F83C30012B04BF0220BDE8F0834FEA48
:10323000B202032A00F2E580DFE802F0023A76B03B
:10324000036842F600461A6AC4F2010622F001023F
:103250001A621D6A1A465C6852F818CFB3428E682B
:10326000D1F800E025F0020545EA06050CD1CE684C
:10327000D1E9057824F4407425F00C0526F0040605
:103280003C43354344EA08042CF0730747EA0E0731
:103290005C609F614F6809695F631D629F6947F0C9
:1032A00008079F619F6927F004079F61A6E000BFA0
:1032B000036842F600461A6AC4F2010622F01002C0
:1032C0001A621D6A1A46D3F804C052F8184FB34266
:1032D0008E68D1F800E025F0200545EA06150FD1EB
:1032E000CE68D1E905986FF0400707EA06162CF47E
:1032F000406725F0C00547EA8907354347EA880C4F
:1033000024F4E64444EA0E27C3F804C09F614F68E2
:1033100009699F631D629F6947F400679F619F6908
:1033200027F480679F6168E0036842F600461A6AE6
:10333000C4F2010622F480721A621D6A1A46D3F89A
:1033400004C052F81CEFB3428E680C6825F4007577
:1033500045EA06250FD1CE68D1E90598360240F23C
:10336000FF47BE432CF4405725F4406547EA091750
:10337000354347EA081C2EF073072743C3F804C0FF
:10338000DF614F680969DF631D62DF6947F0080785
:10339000DF61DF6927F00407DF612FE0036842F691
:1033A00000471A6AC4F2010722F480521A621A46D0
:1033B000D3F820C05D6852F81C4FD1F800E08E6849
:1033C000BB4204D14F6925F4804545EA87152CF4AA
:1033D000005747EA063724F4E64646EA0E265D60C3
:1033E000DE614E6809691E641F62DF6947F4006789
:1033F000DF61DF6927F48067DF6109021368194321
:103400001160002180F83C100846BDE8F083000000
:10341000002804BF0120704710B5044690F83D0015
:1034200028B9002084F83C00204600F067F802200C
:1034300084F83D00206840F2FF730268C4F2000384
:1034400042F6004C9842C4F2010C15DCB0F1804FFA
:103450001AD040F20041C4F20001884214D09842D0
:1034600018DCB0F1804F1DD040F20041C4F20001E1
:10347000884217D01AE000BF604505D040F6000131
:10348000C4F200018842EAD1A16822F070020A4326
:103490009842E6DD604505D040F60001C4F2000127
:1034A000884203D1216922F440720A43A36922F0C1
:1034B0008001D4F804E0E268194360450160C2620B
:1034C000C0F828E002D16169CCF8301001214161D7
:1034D000002084F8461084F83E1084F83F1084F8E9
:1034E000401084F8411084F8421084F8431084F8A6
:1034F000441084F8451084F83D1010BD81B0006878
:1035000040F60001C4F20001884201D001B07047CA
:1035100041F21C00C4F20200016841F004010160A4
:10352000006800F004000090009801B070470000AF
:1035300041B1082910D0042914BF00F1410200F163
:103540003F020BE090F83E20012A1CBF012070478B
:10355000022280F83E2013E000F140021278012A96
:103560001CBF012070470222082907D0042914BF7C
:1035700080F8412080F83F2002E000BF80F8402022
:10358000006801F01F010122036A8A4023EA020158
:103590000162036A42F64441C4F201011A43A1F1F7
:1035A0004403984202620FD040F2FF71C4F200015E
:1035B000884213DCB0F1804F1CD040F20041C4F2CD
:1035C0000001884216D01CE00A6842F400420A60FA
:1035D00040F2FF71C4F200018842EBDD42F6004187
:1035E000C4F20101884205D040F60001C4F2000196
:1035F000884206D1816801F00701062904BF002036
:103600007047016841F0010101600020704700002F
:103610007047000070470000B0B582B002680546F0
:103620001068D368546900F02F01202903F02001AD
:1036300006D129B1284602B0BDE8B04000F086BAF4
:103640005FEA007C1EBF04F0010E03F4907414EBDB
:103650000E0455D1296B012905D110F0100118BFB6
:1036600013F0100136D1010622D513F080011FD0CE
:1036700095F83D00212841D1A868B0F5805F03D1BD
:103680002869002800F0F680286A411C2962007829
:103690005060E88C01380104E8842FD1D06820F014
:1036A0008000D060D06840F04000D06002B0B0BD73
:1036B000400623D513F0400020D0D068202120F010
:1036C0004000D060284685F83D1002B0BDE8B0400B
:1036D00000F026BA00200190106801905068019017
:1036E00001985069400613D4A88DE98DEB8D002B0D
:1036F0001CBF401A5FEA004140F0A48002B0B0BD98
:10370000C40718BF13F480732CD1430730D436E0BC
:10371000A86B01684B689CB2002CEFD0A98D8C423D
:10372000ECD2EB858369202B17D0D16821F480710E
:10373000D160516921F001015161516921F04001CD
:103740005161202185F83E1000212963D16821F0C4
:103750001001D160FEF732F9A98DE88D081A81B207
:10376000284682E02B6C43F001032B64430706D507
:10377000BEF1000F03D02B6C43F002032B648307D0
:1037800006D5BEF1000F03D02B6C43F004032B646D
:10379000BCF1000F06D551EA0E0303D02B6C43F0A9
:1037A00008032B642B6C002BA8D010F0200018BF4E
:1037B000002903D0284600F0C9F92A685069296C0D
:1037C00000F0400001F0080140182DD0D06820F42E
:1037D0009070D060506920F001005061286B012882
:1037E00003D1D06820F01000D060202085F83E0082
:1037F00000202863506940061ED5506920F0400023
:103800005061A86BC0B143F64131C0F6000141637D
:10381000FEF7F8F800283FF471AFA86B416B02B0D7
:10382000BDE8B040084700BF2846FFF7F3FE002080
:10383000286402B0B0BD00BF284602B0BDE8B04069
:10384000FFF7E8BED16821F49071D160516921F091
:1038500001015161202185F83E1000212963D168C2
:1038600021F0100381B22846D36002B0BDE8B04019
:10387000FFF7CEBE286A30F8021B6FF35F2151605C
:10388000286206E7002804BF0120704710B50446EF
:1038900090F83D0028B9002084F83C00204600F054
:1038A0005FF8242084F83D002068D4E90212C36840
:1038B00023F40053C360036923F440531A430261A5
:1038C000D4E904231143C268194341F20C639A43BB
:1038D0001143C1604169A26921F44071114343F66B
:1038E0000002C4F201029042416103D0FEF7EEFDF6
:1038F00002E000BFFEF7FEFD626819214843910017
:10390000B0FBF1F048F21F51C5F2EB11A0FB01230F
:103910005A096FF0630302FB0300322303EB00102C
:10392000A0FB0101F02303EA5113206803EB02120C
:10393000C1F3431111448160016921F49041016197
:10394000416921F02A014161C16841F40051C1601F
:1039500000202021206484F83D1084F83E1010BD22
:1039600080B586B044F200410068C4F20001002234
:103970008842049202D006B080BD00BF41F2180018
:10398000C4F20200426842F400324260426802F42B
:1039900000320192019A026842F00402026000685B
:1039A00000F00400019001980C2002900220039086
:1039B000059001F5444002A9FEF7E0F92620002118
:1039C0000022FEF769FB2620FEF756FB06B080BDFD
:1039D000034690F83E0020280AD100294FF001004C
:1039E00018BF002A00D1704793F83C00012801D18C
:1039F0000220704700201863996222219A85DA8597
:103A0000186483F83E10196883F83C00CA6842F4D1
:103A10008072CA604A6942F001024A61CA6842F093
:103A20002002CA607047000040F22C21C2F200015F
:103A3000884218BF7047B0B584B040F27004C2F23B
:103A4000000460783B2807D02178182904D84A1C44
:103A500021442270087334E045F27E0100250DF107
:103A6000040C04F10C00C0F6000103AA02AB03959C
:103A7000CDE90155CDF800C0FCF7A0FC012817DB0B
:103A800040F29C12C2F200029DF80C0012689DF8F0
:103A900008109DF80430906340F20C10C2F2000050
:103AA0000068416340F2E410C2F200000068436322
:103AB0002570C4E90355C4E90555C4E9075584F8E0
:103AC000245040F22C20611CC2F200000122FFF7BA
:103AD0007FFF04B0BDE8B04070470000034690F897
:103AE0003D0020280AD100294FF0010018BF002A0C
:103AF00000D1704793F83C00012801D102207047A3
:103B00001962002021219A84DA84186483F83D1018
:103B1000196883F83C00CA6842F08002CA607047A6
:103B200070470000FEE70000FEE70000FEE700002F
:103B30007047000070470000FEF736BA704700007B
:103B4000406A0021C185C184FFF764BD81B090F84F
:103B50003E10222920D18368B3F5805F08D1016926
:103B6000002941D000F128010A6803685B680AE077
:103B7000014651F8282F13B90369002BF5D00368CB
:103B80005B6803F07F0313700A6801320A60C18D1D
:103B900001390A04C18501D001B070470168CA68C3
:103BA00022F02002CA60CA6822F48072CA604A69A0
:103BB00022F001024A61202280F83E20026B012A95
:103BC0001CD100220263CB6823F01003CB600B688A
:103BD000DB0605D500920A680092496800910099B9
:103BE000818D01B0FFF714BD0168826A49686FF3E7
:103BF0005F2122F8021B8262C9E700BF01B0FFF714
:103C000013BF000040F22C20C2F20000FFF704BDF9
:103C1000FEE7000098B0FEF7D5F900240120CDE9B9
:103C20000544CDE903440490102002250590684620
:103C3000CDE901441794CDE915440095CDE9075429
:103C40000994FEF76BFC28B1EFF3108072B600BF49
:103C5000FEE700BF0F20CDE90A054FF48060CDE9F3
:103C60000D040AA800210C94FEF750FB20B1EFF3DD
:103C7000108072B6FEE700BF0227002614A8149732
:103C80001696FEF7BDFA28B1EFF3108072B600BFAA
:103C9000FEE700BF41F218050396C4F2020528684A
:103CA00040F6000840F0100028602868C4F20108BF
:103CB00000F010000A900A982868202140F02000A7
:103CC00028602868002200F020000A900A982868DE
:103CD0004FF0200940F004002860286800F004003C
:103CE0000A900A98286840F008002860286800F0C8
:103CF00008000A900A984046FEF74AF94FF400502F
:103D000000900020C1F211006C46CDE9010608F5D3
:103D100000602146FEF732F8CDF800904FF001091F
:103D200040462146CDE901960397FEF727F8282063
:103D300000210022FEF7B0F92820FEF79DF955F882
:103D4000040C002140F0010045F8040C55F8040C67
:103D5000002200F00100009000980B20FEF79CF973
:103D60000B20FEF789F940F27004C2F2000408F556
:103D7000E051204640F8281F4FF480714FF4C022D4
:103D8000067380F81490C0E90672C0E9016107610A
:103D9000FDF78AFC20B1EFF3108072B6FEE700BF9A
:103DA00004F12806002569463046CDE900990295C0
:103DB000FDF756FB20B1EFF3108072B6FEE700BFAF
:103DC00002200190694630460095FDF749FB28B175
:103DD000EFF3108072B600BFFEE700BF40F22C2068
:103DE000A8F54441C2F2000000250C234FF4E13253
:103DF00080E82600C0E90355C0E90535C561FFF735
:103E000041FD28B1EFF3108072B600BFFEE700BF9E
:103E100070200A9040F2E410A8F58031C2F2000050
:103E2000FE230B95CDE90555CDE903557A2280E8AF
:103E30002600C0E903358561FFF7EAFA20B1EFF308
:103E4000108072B6FEE700BF40F2E410C2F200003C
:103E50000AA9FEF779FD28B1EFF3108072B600BF12
:103E6000FEE700BF6020009040F2E4100025C2F29F
:103E7000000069460022CDE901550495FFF7CEF90F
:103E800020B1EFF3108072B6FEE700BF40F2E410FD
:103E9000C2F20000FEF768FF40F20C1008F5105166
:103EA000C2F20000FE231795CDE91555CDE9125554
:103EB00006957A2280E82600C0E90335C0E9055559
:103EC000FEF7E4FD20B1EFF3108072B6FEE700BF0D
:103ED0004FF48050149040F20C10C2F2000014A96C
:103EE000FEF778FE20B1EFF3108072B6FEE700BF58
:103EF00040F20C10C2F20000FFF78AFA20B1EFF393
:103F0000108072B6FEE700BF40F20C10C2F2000053
:103F100012A9FEF719FD18B1EFF3108072B6FEE793
:103F200060200A9040F20C100025C2F200000AA99D
:103F30000022CDE90B55CDE90D55CDE90F55FFF721
:103F40006DF918B1EFF3108072B6FEE74FF4005030
:103F5000059040F20C10C2F2000069460495CDE9CC
:103F60000255CDE900550795FEF7C8FC20B1EFF3E7
:103F7000108072B6FEE700BF40F20C10C2F20000E3
:103F8000FEF7F2FE40F254100021C2F200004FF0A2
:103F9000804241F63F736327CDE90A11CDE905114F
:103FA000CDE90311C0E90023C0E902170161816175
:103FB000FFF736F820B1EFF3108072B6FEE700BFCE
:103FC00040F25410C2F200000AA9FEF7BDFC18B17D
:103FD000EFF3108072B6FEE73020009040F25410EC
:103FE0000025C2F2000069460422CDE9015504957E
:103FF000FEF742FF20B1EFF3108072B6FEE700BF7C
:1040000040F29C10A8F58231C2F20000FE230D950B
:10401000CDE90B55CDE91455CDE90555CDE903554D
:104020007A2280E82600C0E903358561FEF72EFD7F
:1040300020B1EFF3108072B6FEE700BF4FF480505E
:104040000A9040F29C10C2F200000AA9FEF7C2FDDD
:1040500020B1EFF3108072B6FEE700BF40F29C1073
:10406000C2F20000FFF7D4F920B1EFF3108072B66E
:10407000FEE700BF40F29C10C2F2000014A9FEF758
:1040800063FC18B1EFF3108072B6FEE76020009079
:104090000020CDE90100049040F29C10C2F2000023
:1040A00069460422FFF7BAF820B1EFF3108072B628
:1040B000FEE700BF40F29C15C2F200052846FEF75D
:1040C00053FE3046FDF742F940F25410C2F20000B0
:1040D0000421FFF733F8211D30460222FDF7E2FBF1
:1040E00028460421FFF724FA40F20C10C2F2000027
:1040F0000021FEF767FC40F2E410C2F2000000214C
:10410000FFF716FA40F22C20611CC2F200000122D7
:10411000FFF75EFCFEE75FEA400C08BF91F0000F7E
:104120004FEA8C234FEAC12243EA51514FEA1C5017
:1041300018BF00F5F0404FEA300018BF41F00041D1
:104140005FEA6C5C00F02980BCF1FF3F08BF40F0E3
:1041500080407047130C06BF12044FF0100C4FF054
:10416000000C130E04BF12020CF1080C130F04BF55
:1041700012010CF1040C930F04BF92000CF1020C1D
:10418000D30F04BF52000CF1010C11464FF0000296
:10419000A0F11F00A0EB0C00704711F0004F08BF0A
:1041A000704731F000413FF4D5AF0B0C06BF090456
:1041B0004FF0100C4FF0000C0B0E04BF09020CF175
:1041C000080C0B0F04BF09010CF1040C8B0F04BF8A
:1041D00089000CF1020CCB0F04BF49000CF1010C5B
:1041E000CCF1200322FA03F341EA030102FA0CF2B4
:1041F000A0EB0C0000F101007047000023F07F47A6
:1042000020F07F4C80EA030000F00040ACEB070395
:1042100003F57C5303F1FF032DE9804909B44FEA0C
:10422000144324EA03484FEA154B25EA0B4E0FF2DC
:10423000042606EB13273E7803FB0667C7F5000745
:1042400007FB06F64FEAD64606F102064FEA543758
:1042500007FB066CCCF1005C4FEA1C472CEA074CCC
:104260000CFB06F507FB06F404EB15464FEA961621
:1042700049085FEA320234BF00204FF000404FEAA5
:10428000D13706FB07FC4FEA1C4C0CFB0BF7D21B8B
:1042900003FB0CF761EB07010CFB0EF7B0EB0740DB
:1042A00072EB17420CFB08F734BFA2EB0742B2EBEC
:1042B000074261EB17414FEA0C444FEA910706FBB6
:1042C00007FC4FEA1C4C0CFB0BF7B0EBC74072EB42
:1042D000573203FB0CF734BFA2EBC742B2EBC74225
:1042E00061EB57310CFB0EF7B0EBC70072EB577266
:1042F0000CFB08F734BFA2EBC702B2EBC70261EBBD
:1043000057714FEA816141EA92114FEA826242EAB3
:1043100090124FEA806004EBCC04039F4FEAD13740
:1043200006FB07FC4FEA1C4C0CFB0BF7D21B03FBF4
:104330000CF761EB07010CFB0EF7B0EB074072EBDB
:1043400017420CFB08F734BFA2EB0742B2EB07425F
:1043500061EB17414FEA8C5504EB9C244FEA91071F
:1043600006FB07FC4FEA1C4C0CFB0BF7B0EBC740FD
:1043700072EB573203FB0CF734BFA2EBC742B2EB30
:10438000C74261EB57310CFB0EF7B0EBC70072EB85
:1043900057720CFB08F734BFA2EBC702B2EBC7029F
:1043A00061EB57714FEA816141EA92114FEA8262F3
:1043B00042EA90124FEA806015EB4C2544F100046C
:1043C0004FEAD13706FB07FC4FEA1C4C0CFB0BF7FE
:1043D000D21B03FB0CF761EB07010CFB0EF7B0EBF4
:1043E000074072EB17420CFB08F734BFA2EB074201
:1043F000B2EB074261EB17414FEA813141EA92414A
:104400004FEA823242EA90424FEA80304FEA0C761D
:1044100015EB1C1544F1000448EA03434EEA0B482F
:104420004FF0000EB2EB080C71EB030724BF62469D
:1044300039464EEB0E0E4FF0000B00185241494129
:104440004BEB0B0BB2EB080C71EB03077BF1000B92
:1044500024BF624639464EEB0E0E4FF0000B00189B
:10446000524149414BEB0B0BB2EB080C71EB0307CC
:104470007BF1000B24BF624639464EEB0E0E51EA2B
:10448000020718BF46F0010616EB0E7655F1000242
:1044900054F1000103D5BDE88901BDE80088BDE8FD
:1044A0008901BDE80048B619524141EB0101A3F171
:1044B0000103704780807F7E7D7C7B7A7978777678
:1044C00076757473727171706F6E6E6D6C6C6B6AF1
:1044D0006A6968686766666564646363626161608F
:1044E000605F5F5E5E5D5D5C5C5B5B5A5A5959580C
:1044F0005857575656555555545453535252525176
:10450000515050504F4F4F4E4E4D4D4D4C4C4C4BCB
:104510004B4B4A4A4A494949484848474747474612
:10452000464645454544444444434343434242424E
:10453000424141419C46002B30D477002BD04FEABA
:1045400037071CB503B44FF010004FF01001BAF15B
:10455000000F06D0BCF1000FDCBF40F0080040F0B7
:1045600008014FF000000FBCBDE810400BF1010B3B
:10457000BBF1010F08BF5FEA170722BF12F101026A
:1045800011F101014FF0004143F1000300F0004040
:1045900043EA00007047F9D35708D0E746EA0646D9
:1045A0004FEA164613F1400F1FDD13F1200FDFBF56
:1045B00016430A46002120335B42BED0C3F12007D8
:1045C00046EA06464FEA164602FA07F746EA0706A3
:1045D00022FA03F2C3F1200701FA07F742EA0702C1
:1045E00021FA03F14FF00003A7E746EA020646EA84
:1045F00006464FEA164646EA0106BCBF46EA0646AC
:10460000360C4FF000034FF000024FF0000194E72A
:104610002DE9804C70B49A46934691E8380007C85B
:1046200031EA400C48BF34EA430C03D5FFF7E6FDFE
:10463000FFF780FFF0BCBDE8008C2DE9804C70B422
:104640009A46934691E8380007C810F0804F08BF9B
:1046500013F0804F03D100F005F8FFF76BFFF0BCBB
:10466000BDE8008C20F07F4723F07F4C80EA0300F8
:1046700000F0004007EB0C03A3F57C53A3F1FE030D
:1046800092F0000F00F0B38095F0000F00F07780FB
:104690002DE901494FEA114021EA00484FEA14464A
:1046A00024EA064700FB06FC08FB06F607FB08F8B1
:1046B00018EB06484CEB164C00FB07F718EB0748C5
:1046C0004CEB17404FEA124B22EA0B4E4FEA1546CD
:1046D00025EA06470BFB06FC0EFB06F607FB0EFE63
:1046E0001EEB064E4CEB164C0BFB07F71EEB074E72
:1046F0004CEB174B18EB0B0840F1000018EB0E0BBE
:1047000058EB000840F100008F1A4FF000014FF005
:1047100000063CBFC943661B14BFB5EB040C002167
:104720003CBFC943F61B4FEA174427EA04454FEA4A
:104730001C472CEA074C04FB076205FB07F70CFB40
:1047400005F616EB074642EB174204FB0CFC16EB92
:104750000C4642EB1C421BEB060658EB02024141A1
:104760004EEA8E0E46EA9E0601D5BDE80189B619CD
:10477000524141EB0101A3F10103BDE801894FEA78
:10478000144524EA05464FEA114721EA074C05FB88
:1047900007F406FB07F70CFB06F111EB074144EBAE
:1047A000174405FB0CFC11EB0C4144EB1C444FEA95
:1047B000124722EA074C05FB07F206FB07F70CFB42
:1047C00006F616EB074642EB174205FB0CFC16EB10
:1047D0000C4642EB1C456A1854F1000148BF704773
:1047E000B619524141EB0101A3F10103704795F065
:1047F000000F37D04FEA114221EA02464FEA144730
:1048000024EA074C02FB07F106FB07F70CFB06F452
:1048100014EB074441EB174102FB0CFC14EB0C4476
:1048200041EB1C414FEA154725EA074C02FB07F50F
:1048300006FB07F70CFB06F616EB074645EB17459C
:1048400002FB0CFC16EB0C4645EB1C42121951F115
:10485000000148BF7047B619524141EB0101A3F175
:10486000010370474FEA144524EA05464FEA114711
:1048700021EA074C05FB07F106FB07F70CFB06F2E4
:1048800012EB074241EB174105FB0CFC12EB0C420B
:1048900051EB1C414FF0000648BF7047921841EBA6
:1048A0000101A3F101037047490050EAC12018BF7C
:1048B00004204A0D18BF40F0010040F2FF72B2EB35
:1048C000515F08BF40F00200012808BF0520704773
:1048D00030380A2801D201207047002070470000BC
:1048E00010B500290AD00878002807D00548784478
:1048F000FCF710FC002801D0002010BD02487844CD
:1049000010BD0000C6070000BE07000010B500295A
:104910000AD00878002807D005487844FCF7FAFB4D
:10492000002801D0002010BD0248784410BD0000CE
:10493000B6070000AE07000021F0004201F000437E
:10494000A2F16052B2F5801F28BFD2F17F6C0BD963
:104950005FEA001C43EAC20242EB507018BF704786
:1049600028BF20F001007047B2F5801FBCBF184679
:1049700070474FEA410C1CF5001F02D2084600F0B8
:1049800018BB70B500F050FA00000089FFF7F6BFC1
:104990004FF00040A0F58000704700002DE9C041B5
:1049A00030B4DFF8A4C23CEA111418BF3CEA131477
:1049B00000F0ED801CEA111481EA030544EAD57485
:1049C00018BF1CEA131500F0C880A4EB050404F11D
:1049D0007F7404F500344FF0004545EAC12145EAF3
:1049E000C32341EA505143EA52534FEAC0204FEAF1
:1049F000C222994208BF904200F09D804FEA1365A1
:104A00000FF24416765D4FEA134506FB05F7C7F132
:104A1000807706FB07F74FEAD737A7FB0368764294
:104A2000A7FB06CEC8F5803838BFA8F1010807FB00
:104A300008E6A6FB028C4FF0000EE6FB03CEDCF18D
:104A4000000CCEF1004E38BFAEF1010EA6FB0C58A3
:104A50004FF00007E6FB0E87A1FB08C6A0FB07CEC0
:104A600016EB0E064FF0000545F10005E1FB07656A
:104A700015F1E04E7EBFA4F580345FEA46066D4135
:104A800016F1800745F100054FEA172747EA056749
:104A90004FEA15254FEA0666A6F1DE46B6F1805FBD
:104AA00020D9384605EBC47124F0010C01EB0C1140
:104AB000BCF1FE6F02D8F0BCBDE8008124425CBFAF
:104AC00001F5801E9EEAC47F02D4F0BCBDE80081DF
:104AD000244200F13980A1F1C041F0BCBDE80041A1
:104AE00000F0F0B94FEAD02040EA41504FEAD1211E
:104AF0004FEAD22242EA43524FEAD323A7FB02866F
:104B000007FB036605FB02661EEA0E0F58BFA6EB05
:104B10000056B6EB00564FEA520E4EEAC37E18EB33
:104B20000E0E56EB530EBCD518EB02085E417F1CEF
:104B300055F10005B5E74FF480154FF000074FF031
:104B400000064FF00008ACE701F1C04101F0004160
:104B50004FF00000F0BCBDE800810CEA131511EA2B
:104B60000C1F00D00CE013EA0C1F00F026804FF061
:104B7000000081EA030101F00041F0BCBDE80081C2
:104B8000F0BCBDE8004181EA030100F09BB9F0BC34
:104B9000BDE8004170B500F047F900BF097EFC3E5A
:104BA00000F007B84FF0000081EA030101F0004176
:104BB000704781EA030100F085B9F0BCBDE800410F
:104BC00022494FF000007047FFFDFBF9F7F5F4F2C2
:104BD000F0EEEDEBE9E8E6E4E3E1E0DEDDDBDAD898
:104BE000D7D5D4D3D1D0CFCDCCCBCAC8C7C6C5C4F6
:104BF000C2C1C0BFBEBDBCBBBAB9B8B7B6B5B4B30D
:104C0000B2B1B0AFAEADACABAAA9A8A8A7A6A5A4F7
:104C1000A3A3A2A1A09F9F9E9D9C9C9B9A999998BB
:104C20009797969595949393929191908F8F8E8E5E
:104C30008D8C8C8B8B8A89898888878786858584EB
:104C400084838382828181800000FF070000F87FD7
:104C50004FEA41034FEA5353A3F58063D3F11E0398
:104C6000C8BFD3F1210C0CDD4FF0004242EAC12253
:104C700042EA505232FA03FC8CEAE17CACEBE17080
:104C80007047102BC4BF0020704703F5787CBCF13F
:104C9000FF3F04D06FF0004282EA2100704770B5F8
:104CA00000F0C2F84992248000207047F2E7B0FA81
:104CB00080F310FA03F10AD0C3F11D0303F58063FA
:104CC0004FEA03524FEA415002EBD12170474FF0B7
:104CD0000000704770B5DFF848C11CEA111E1EBF06
:104CE0001CEA13159EEA0C0F95EA0C0F00F06F807A
:104CF00081EA03044EEAD47EAE4421EA4C1123EA51
:104D00004C1341F4801143F48013AEF17F7EA1FB7C
:104D1000024CA0FB0365361955EB0C05A1FB034CB7
:104D20004CF10003A0FB021C16EB0C06654153F18D
:104D30000003094218BF46F0010613F4007F0BD1AF
:104D40004FEA03314FEA053041EA155140EA165067
:104D500034036FF003020AE04FEAC3214FEAC52093
:104D600041EA555140EA5650F4026FF0020202EB5C
:104D70002E4201EB025585EACE710AD05FEA440C5F
:104D800018BF24F0004450F1000041F1000120EA76
:104D9000D47040F2FE7C624500D270BDA84214BFC0
:104DA0004FF080444FF04044002E08BF0024BEF175
:104DB000806FA8BFA1F1C041BDE8704080F2828041
:104DC00001F1C04101F000414FF0000070470CEAD2
:104DD00013159EEA0C0F18BF95EA0C0F06D081EA56
:104DE000030E4FF000000EF0004170BD00F01CF803
:104DF0008900013E00F007B800F009B84FEA430C03
:104E00005FEA5C5C08D081EA030100F05BB84FEA1E
:104E1000410C5FEA5C5CF6D102494FF0000070473C
:104E20000000FF070000F87F0EF1020E2EF0030EC7
:104E30005EF8046B364205D4012A43EB030515F5F1
:104E4000001F12D8012841EB010C1CF5001F0CD8E3
:104E50000ED14FEAD17C0CEB4C0C0CF1020C15F589
:104E6000001F08BF4CEBD37C04E04FF0080C01E0BE
:104E70004FEAD37C0CEB4C0526FA05F606F0070644
:104E8000B6F1040C06D20EEB860CBDE870404CF077
:104E9000010C6047DFE80CF0090B02024FF0004103
:104EA000A1F500214FF0000070BD19461046012801
:104EB00051EB010418BFD4F5001484BF002001F0A9
:104EC000004170BD0808A0F500114FEA310170479C
:104ED00043004FEAD30C4FEA3C0C43401FBF40074E
:104EE0000CF1605113F0FE4F70471CF0006F03D1BE
:104EF0000CF00041002070470CF0004343EA507072
:104F000040EACC0010B500F00EF800BF000000929F
:104F10004FEA0001FFF7D6BF4FF00041A1F5002195
:104F20004FF0000070470EF1020E2EF0030E5EF8F7
:104F3000044B244204D44FEA4102B2F17F4F11D80E
:104F40004FEA4003B3F17F4F0CD80ED14FEAD07C2B
:104F50000CEB4C0C0CF1020CB2F17F4F08BF4CEB88
:104F6000D17C04E04FF0080C01E04FEAD17C0CEB5F
:104F70004C0324FA03F404F00704B4F1040C06D241
:104F80000EEB840CBDE810404CF0010C6047DFE8EC
:104F90000CF0070802024FF00040A0F5800010BDA1
:104FA0000846420018BFD2F1807288BF00F000406E
:104FB00010BDFF2141EAD050C0057047FBF715BC7A
:104FC00002400000000000A00000000005400000BA
:104FD000000000C8000000000C4000000000409CE1
:104FE00000000000194000000020BCBE00000000CE
:104FF00034400000BFC91B8E00000004B540000013
:10500000504BCFD06607E2CF010000006C4100009A
:105010003E8251AADFEEA73401000000D942000011
:10502000DCB5A0E23A301F97FFFFFFFFB445000058
:10503000FD25A0C8E9A3C14FFFFFFFFFFF3F000010
:105040000000008000000000FF3F00000000008022
:10505000000000000102000000000000000001024A
:10506000030406070809000000000102030402030C
:105070000405060708090A0B0C0D0E0F1010524705
:10508000423D723A25642C673A25642C623A2564C5
:1050900000000000E05100080000002010000000A7
:1050A00028010008F05100081000002068080000E6
:1050B000440100081C00000043000000F8FFFFFF4F
:1050C0000C0000000E0000000F0000002E00000089
:1050D0001001000043000000F8FFFFFF00404040C7
:1050E00040404040404041414141414040404040BB
:1050F0004040404040404040404040404005020267
:105100000202020202020202020202020220202025
:105110002020202020202002020202020202909081
:10512000909090901010101010101010101010107F
:1051300010101010101010100202020202028888D3
:1051400088888888080808080808080808080808DF
:1051500008080808080808080202020240000000C7
:10516000000000000000000000000000000000003F
:10517000000000000000000000000000000000002F
:10518000000000000000000000000000000000001F
:10519000000000000000000000000000000000000F
:1051A00000000000000000000000000000000000FF
:1051B00000000000000000000000000000000000EF
:1051C00000000000000000000000000000000000DF
:1051D00000000000000000000000000000000000CF
:1051E00001000000100000000024F4000000000096
:04000005080000ED02
:00000001FF
